{
  "contractName": "MarketPlace",
  "abi": [
    {
      "anonymous": false,
      "inputs": [
        {
          "indexed": true,
          "internalType": "address",
          "name": "_from",
          "type": "address"
        },
        {
          "indexed": true,
          "internalType": "address",
          "name": "_to",
          "type": "address"
        },
        {
          "indexed": false,
          "internalType": "uint256",
          "name": "_value",
          "type": "uint256"
        }
      ],
      "name": "DeposerRemuneration",
      "type": "event"
    },
    {
      "anonymous": false,
      "inputs": [
        {
          "indexed": true,
          "internalType": "address",
          "name": "_to",
          "type": "address"
        },
        {
          "indexed": true,
          "internalType": "address",
          "name": "_from",
          "type": "address"
        },
        {
          "indexed": false,
          "internalType": "uint256",
          "name": "_value",
          "type": "uint256"
        }
      ],
      "name": "PayerRemuneration",
      "type": "event"
    },
    {
      "constant": true,
      "inputs": [
        {
          "internalType": "uint256",
          "name": "",
          "type": "uint256"
        }
      ],
      "name": "demandeursAccts",
      "outputs": [
        {
          "internalType": "address",
          "name": "",
          "type": "address"
        }
      ],
      "payable": false,
      "stateMutability": "view",
      "type": "function"
    },
    {
      "constant": true,
      "inputs": [
        {
          "internalType": "uint256",
          "name": "",
          "type": "uint256"
        }
      ],
      "name": "illustrateursAccts",
      "outputs": [
        {
          "internalType": "address",
          "name": "",
          "type": "address"
        }
      ],
      "payable": false,
      "stateMutability": "view",
      "type": "function"
    },
    {
      "constant": true,
      "inputs": [],
      "name": "indexDemande",
      "outputs": [
        {
          "internalType": "uint256",
          "name": "",
          "type": "uint256"
        }
      ],
      "payable": false,
      "stateMutability": "view",
      "type": "function"
    },
    {
      "constant": false,
      "inputs": [
        {
          "internalType": "string",
          "name": "nom",
          "type": "string"
        }
      ],
      "name": "inscription",
      "outputs": [],
      "payable": false,
      "stateMutability": "nonpayable",
      "type": "function"
    },
    {
      "constant": false,
      "inputs": [],
      "name": "inscriptionDemandeur",
      "outputs": [],
      "payable": false,
      "stateMutability": "nonpayable",
      "type": "function"
    },
    {
      "constant": false,
      "inputs": [
        {
          "internalType": "uint256",
          "name": "_remuneration",
          "type": "uint256"
        },
        {
          "internalType": "uint256",
          "name": "_delai",
          "type": "uint256"
        },
        {
          "internalType": "string",
          "name": "_description",
          "type": "string"
        },
        {
          "internalType": "uint256",
          "name": "_reputationMinumum",
          "type": "uint256"
        }
      ],
      "name": "ajouterDemande",
      "outputs": [],
      "payable": true,
      "stateMutability": "payable",
      "type": "function"
    },
    {
      "constant": true,
      "inputs": [
        {
          "internalType": "uint256",
          "name": "_indexDemande",
          "type": "uint256"
        }
      ],
      "name": "getDemandes",
      "outputs": [
        {
          "internalType": "uint256",
          "name": "",
          "type": "uint256"
        },
        {
          "internalType": "uint256",
          "name": "",
          "type": "uint256"
        },
        {
          "internalType": "uint256",
          "name": "",
          "type": "uint256"
        },
        {
          "internalType": "string",
          "name": "",
          "type": "string"
        },
        {
          "internalType": "uint256",
          "name": "",
          "type": "uint256"
        },
        {
          "internalType": "enum MarketPlace.EtatDemande",
          "name": "",
          "type": "uint8"
        }
      ],
      "payable": false,
      "stateMutability": "view",
      "type": "function"
    },
    {
      "constant": false,
      "inputs": [
        {
          "internalType": "uint256",
          "name": "idDemande",
          "type": "uint256"
        }
      ],
      "name": "postuler",
      "outputs": [],
      "payable": false,
      "stateMutability": "nonpayable",
      "type": "function"
    },
    {
      "constant": false,
      "inputs": [
        {
          "internalType": "uint256",
          "name": "idDemande",
          "type": "uint256"
        },
        {
          "internalType": "address",
          "name": "addressCandidat",
          "type": "address"
        }
      ],
      "name": "accepterOffre",
      "outputs": [],
      "payable": false,
      "stateMutability": "nonpayable",
      "type": "function"
    },
    {
      "constant": false,
      "inputs": [
        {
          "internalType": "uint256",
          "name": "idDemande",
          "type": "uint256"
        },
        {
          "internalType": "string",
          "name": "lienLivraison",
          "type": "string"
        }
      ],
      "name": "livraison",
      "outputs": [],
      "payable": true,
      "stateMutability": "payable",
      "type": "function"
    }
  ],
  "bytecode": "0x608060405234801561001057600080fd5b50612005806100206000396000f3fe6080604052600436106100915760003560e01c8063798519d111610059578063798519d1146102e2578063cbfad35014610365578063d859b8dd146103fc578063d9125ab414610413578063e783a5b41461048e57610091565b8063095174fd1461009657806317286e49146101115780634476cf591461013c57806345ea43b0146101c25780635c38e64a146101fd575b600080fd5b3480156100a257600080fd5b506100cf600480360360208110156100b957600080fd5b81019080803590602001909291905050506104e9565b604051808273ffffffffffffffffffffffffffffffffffffffff1673ffffffffffffffffffffffffffffffffffffffff16815260200191505060405180910390f35b34801561011d57600080fd5b50610126610525565b6040518082815260200191505060405180910390f35b34801561014857600080fd5b506101c06004803603602081101561015f57600080fd5b810190808035906020019064010000000081111561017c57600080fd5b82018360208201111561018e57600080fd5b803590602001918460018302840111640100000000831117156101b057600080fd5b909192939192939050505061052b565b005b3480156101ce57600080fd5b506101fb600480360360208110156101e557600080fd5b81019080803590602001909291905050506107c9565b005b34801561020957600080fd5b506102366004803603602081101561022057600080fd5b8101908080359060200190929190505050610ba5565b604051808781526020018681526020018581526020018060200184815260200183600281111561026257fe5b60ff168152602001828103825285818151815260200191508051906020019080838360005b838110156102a2578082015181840152602081019050610287565b50505050905090810190601f1680156102cf5780820380516001836020036101000a031916815260200191505b5097505050505050505060405180910390f35b610363600480360360408110156102f857600080fd5b81019080803590602001909291908035906020019064010000000081111561031f57600080fd5b82018360208201111561033157600080fd5b8035906020019184600183028401116401000000008311171561035357600080fd5b9091929391929390505050610d30565b005b6103fa6004803603608081101561037b57600080fd5b810190808035906020019092919080359060200190929190803590602001906401000000008111156103ac57600080fd5b8201836020820111156103be57600080fd5b803590602001918460018302840111640100000000831117156103e057600080fd5b909192939192939080359060200190929190505050611142565b005b34801561040857600080fd5b506104116114ef565b005b34801561041f57600080fd5b5061044c6004803603602081101561043657600080fd5b81019080803590602001909291905050506116f6565b604051808273ffffffffffffffffffffffffffffffffffffffff1673ffffffffffffffffffffffffffffffffffffffff16815260200191505060405180910390f35b34801561049a57600080fd5b506104e7600480360360408110156104b157600080fd5b8101908080359060200190929190803573ffffffffffffffffffffffffffffffffffffffff169060200190929190505050611732565b005b600181815481106104f657fe5b906000526020600020016000915054906101000a900473ffffffffffffffffffffffffffffffffffffffff1681565b60045481565b6000803373ffffffffffffffffffffffffffffffffffffffff1673ffffffffffffffffffffffffffffffffffffffff16815260200190815260200160002060030160009054906101000a900460ff16156105ed576040517f08c379a00000000000000000000000000000000000000000000000000000000081526004018080602001828103825260188152602001807f766f757320c3aa7465732064c3a96a6120696e7363726974000000000000000081525060200191505060405180910390fd5b336000803373ffffffffffffffffffffffffffffffffffffffff1673ffffffffffffffffffffffffffffffffffffffff16815260200190815260200160002060000160006101000a81548173ffffffffffffffffffffffffffffffffffffffff021916908373ffffffffffffffffffffffffffffffffffffffff16021790555060016000803373ffffffffffffffffffffffffffffffffffffffff1673ffffffffffffffffffffffffffffffffffffffff1681526020019081526020016000206001018190555081816000803373ffffffffffffffffffffffffffffffffffffffff1673ffffffffffffffffffffffffffffffffffffffff1681526020019081526020016000206002019190610704929190611c4a565b5060016000803373ffffffffffffffffffffffffffffffffffffffff1673ffffffffffffffffffffffffffffffffffffffff16815260200190815260200160002060030160006101000a81548160ff02191690831515021790555060013390806001815401808255809150509060018203906000526020600020016000909192909190916101000a81548173ffffffffffffffffffffffffffffffffffffffff021916908373ffffffffffffffffffffffffffffffffffffffff160217905550505050565b336000808273ffffffffffffffffffffffffffffffffffffffff1673ffffffffffffffffffffffffffffffffffffffff16815260200190815260200160002060030160009054906101000a900460ff1661088b576040517f08c379a000000000000000000000000000000000000000000000000000000000815260040180806020018281038252600e8152602001807f696e7363726976657a20766f757300000000000000000000000000000000000081525060200191505060405180910390fd5b6005828154811061089857fe5b90600052602060002090600d0201600501546000803373ffffffffffffffffffffffffffffffffffffffff1673ffffffffffffffffffffffffffffffffffffffff168152602001908152602001600020600101541015610943576040517f08c379a0000000000000000000000000000000000000000000000000000000008152600401808060200182810382526029815260200180611fa86029913960400191505060405180910390fd5b61094b611cca565b6000803373ffffffffffffffffffffffffffffffffffffffff1673ffffffffffffffffffffffffffffffffffffffff1681526020019081526020016000206040518060800160405290816000820160009054906101000a900473ffffffffffffffffffffffffffffffffffffffff1673ffffffffffffffffffffffffffffffffffffffff1673ffffffffffffffffffffffffffffffffffffffff16815260200160018201548152602001600282018054600181600116156101000203166002900480601f016020809104026020016040519081016040528092919081815260200182805460018160011615610100020316600290048015610a8d5780601f10610a6257610100808354040283529160200191610a8d565b820191906000526020600020905b815481529060010190602001808311610a7057829003601f168201915b505050505081526020016003820160009054906101000a900460ff16151515158152505090508060058481548110610ac157fe5b90600052602060002090600d0201600b0160003373ffffffffffffffffffffffffffffffffffffffff1673ffffffffffffffffffffffffffffffffffffffff16815260200190815260200160002060008201518160000160006101000a81548173ffffffffffffffffffffffffffffffffffffffff021916908373ffffffffffffffffffffffffffffffffffffffff160217905550602082015181600101556040820151816002019080519060200190610b7c929190611d0a565b5060608201518160030160006101000a81548160ff021916908315150217905550905050505050565b6000806000606060008060058781548110610bbc57fe5b90600052602060002090600d020160010154600560045481548110610bdd57fe5b90600052602060002090600d020160020154600560045481548110610bfe57fe5b90600052602060002090600d020160030154600560045481548110610c1f57fe5b90600052602060002090600d0201600401600560045481548110610c3f57fe5b90600052602060002090600d020160050154600560045481548110610c6057fe5b90600052602060002090600d0201600c0160009054906101000a900460ff16828054600181600116156101000203166002900480601f016020809104026020016040519081016040528092919081815260200182805460018160011615610100020316600290048015610d145780601f10610ce957610100808354040283529160200191610d14565b820191906000526020600020905b815481529060010190602001808311610cf757829003601f168201915b5050505050925095509550955095509550955091939550919395565b336000808273ffffffffffffffffffffffffffffffffffffffff1673ffffffffffffffffffffffffffffffffffffffff16815260200190815260200160002060030160009054906101000a900460ff16610df2576040517f08c379a000000000000000000000000000000000000000000000000000000000815260040180806020018281038252600e8152602001807f696e7363726976657a20766f757300000000000000000000000000000000000081525060200191505060405180910390fd5b60058481548110610dff57fe5b90600052602060002090600d020160060160000160009054906101000a900473ffffffffffffffffffffffffffffffffffffffff1673ffffffffffffffffffffffffffffffffffffffff166000803373ffffffffffffffffffffffffffffffffffffffff1673ffffffffffffffffffffffffffffffffffffffff16815260200190815260200160002060000160009054906101000a900473ffffffffffffffffffffffffffffffffffffffff1673ffffffffffffffffffffffffffffffffffffffff1614610f18576040517f08c379a0000000000000000000000000000000000000000000000000000000008152600401808060200182810382526035815260200180611f736035913960400191505060405180910390fd5b60008383604051808383808284378083019250505092505050604051809103902090508060058681548110610f4957fe5b90600052602060002090600d0201600a0181905550600260058681548110610f6d57fe5b90600052602060002090600d0201600c0160006101000a81548160ff02191690836002811115610f9957fe5b02179055506000803373ffffffffffffffffffffffffffffffffffffffff1673ffffffffffffffffffffffffffffffffffffffff168152602001908152602001600020600101600081548092919060010191905055503373ffffffffffffffffffffffffffffffffffffffff166108fc6005878154811061101657fe5b90600052602060002090600d0201600201549081150290604051600060405180830381858888f19350505050158015611053573d6000803e3d6000fd5b503373ffffffffffffffffffffffffffffffffffffffff166000803373ffffffffffffffffffffffffffffffffffffffff1673ffffffffffffffffffffffffffffffffffffffff16815260200190815260200160002060000160009054906101000a900473ffffffffffffffffffffffffffffffffffffffff1673ffffffffffffffffffffffffffffffffffffffff167f52d7f066a31e079f6e43b248f26368cab42cb122500c9d24a2989931b55370456005600189038154811061111457fe5b90600052602060002090600d0201600201546040518082815260200191505060405180910390a35050505050565b33600260008273ffffffffffffffffffffffffffffffffffffffff1673ffffffffffffffffffffffffffffffffffffffff16815260200190815260200160002060000160149054906101000a900460ff16611205576040517f08c379a000000000000000000000000000000000000000000000000000000000815260040180806020018281038252600e8152602001807f696e7363726976657a20766f757300000000000000000000000000000000000081525060200191505060405180910390fd5b60006064600288028161121457fe5b04905080870134101561122657600080fd5b61122e611d8a565b600454816020018181525050878160400181815250508681606001818152505085858080601f016020809104026020016040519081016040528093929190818152602001838380828437600081840152601f19601f820116905080830192505050505050508160800181905250838160a0018181525050600081610100019060028111156112b857fe5b908160028111156112c557fe5b81525050806005600454815481106112d957fe5b90600052602060002090600d020160008201518160000160008201518160000160006101000a81548173ffffffffffffffffffffffffffffffffffffffff021916908373ffffffffffffffffffffffffffffffffffffffff16021790555060208201518160000160146101000a81548160ff02191690831515021790555050506020820151816001015560408201518160020155606082015181600301556080820151816004019080519060200190611393929190611d0a565b5060a0820151816005015560c08201518160060160008201518160000160006101000a81548173ffffffffffffffffffffffffffffffffffffffff021916908373ffffffffffffffffffffffffffffffffffffffff160217905550602082015181600101556040820151816002019080519060200190611414929190611d0a565b5060608201518160030160006101000a81548160ff021916908315150217905550505060e082015181600a015561010082015181600c0160006101000a81548160ff0219169083600281111561146657fe5b02179055509050506004600081548092919060010191905055503073ffffffffffffffffffffffffffffffffffffffff163373ffffffffffffffffffffffffffffffffffffffff167f764ad312818a22c29e935d78cfc2bd168ccad1ed0a11583ee15e9a21f5314c3c346040518082815260200191505060405180910390a35050505050505050565b600260003373ffffffffffffffffffffffffffffffffffffffff1673ffffffffffffffffffffffffffffffffffffffff16815260200190815260200160002060000160149054906101000a900460ff16156115b2576040517f08c379a00000000000000000000000000000000000000000000000000000000081526004018080602001828103825260188152602001807f766f757320c3aa7465732064c3a96a6120696e7363726974000000000000000081525060200191505060405180910390fd5b33600260003373ffffffffffffffffffffffffffffffffffffffff1673ffffffffffffffffffffffffffffffffffffffff16815260200190815260200160002060000160006101000a81548173ffffffffffffffffffffffffffffffffffffffff021916908373ffffffffffffffffffffffffffffffffffffffff1602179055506001600260003373ffffffffffffffffffffffffffffffffffffffff1673ffffffffffffffffffffffffffffffffffffffff16815260200190815260200160002060000160146101000a81548160ff02191690831515021790555060033390806001815401808255809150509060018203906000526020600020016000909192909190916101000a81548173ffffffffffffffffffffffffffffffffffffffff021916908373ffffffffffffffffffffffffffffffffffffffff16021790555050565b6003818154811061170357fe5b906000526020600020016000915054906101000a900473ffffffffffffffffffffffffffffffffffffffff1681565b33600260008273ffffffffffffffffffffffffffffffffffffffff1673ffffffffffffffffffffffffffffffffffffffff16815260200190815260200160002060000160149054906101000a900460ff166117f5576040517f08c379a000000000000000000000000000000000000000000000000000000000815260040180806020018281038252600e8152602001807f696e7363726976657a20766f757300000000000000000000000000000000000081525060200191505060405180910390fd5b816000808273ffffffffffffffffffffffffffffffffffffffff1673ffffffffffffffffffffffffffffffffffffffff16815260200190815260200160002060030160009054906101000a900460ff166118b7576040517f08c379a000000000000000000000000000000000000000000000000000000000815260040180806020018281038252600e8152602001807f696e7363726976657a20766f757300000000000000000000000000000000000081525060200191505060405180910390fd5b3373ffffffffffffffffffffffffffffffffffffffff16600585815481106118db57fe5b90600052602060002090600d020160000160000160009054906101000a900473ffffffffffffffffffffffffffffffffffffffff1673ffffffffffffffffffffffffffffffffffffffff161461197c576040517f08c379a0000000000000000000000000000000000000000000000000000000008152600401808060200182810382526026815260200180611f0f6026913960400191505060405180910390fd5b6005848154811061198957fe5b90600052602060002090600d0201600b0160008473ffffffffffffffffffffffffffffffffffffffff1673ffffffffffffffffffffffffffffffffffffffff16815260200190815260200160002060000160009054906101000a900473ffffffffffffffffffffffffffffffffffffffff1673ffffffffffffffffffffffffffffffffffffffff166000808573ffffffffffffffffffffffffffffffffffffffff1673ffffffffffffffffffffffffffffffffffffffff16815260200190815260200160002060000160009054906101000a900473ffffffffffffffffffffffffffffffffffffffff1673ffffffffffffffffffffffffffffffffffffffff1614611adf576040517f08c379a000000000000000000000000000000000000000000000000000000000815260040180806020018281038252603e815260200180611f35603e913960400191505060405180910390fd5b6000808473ffffffffffffffffffffffffffffffffffffffff1673ffffffffffffffffffffffffffffffffffffffff16815260200190815260200160002060058581548110611b2a57fe5b90600052602060002090600d02016006016000820160009054906101000a900473ffffffffffffffffffffffffffffffffffffffff168160000160006101000a81548173ffffffffffffffffffffffffffffffffffffffff021916908373ffffffffffffffffffffffffffffffffffffffff1602179055506001820154816001015560028201816002019080546001816001161561010002031660029004611bd3929190611df0565b506003820160009054906101000a900460ff168160030160006101000a81548160ff021916908315150217905550905050600160058581548110611c1357fe5b90600052602060002090600d0201600c0160006101000a81548160ff02191690836002811115611c3f57fe5b021790555050505050565b828054600181600116156101000203166002900490600052602060002090601f016020900481019282601f10611c8b57803560ff1916838001178555611cb9565b82800160010185558215611cb9579182015b82811115611cb8578235825591602001919060010190611c9d565b5b509050611cc69190611e77565b5090565b6040518060800160405280600073ffffffffffffffffffffffffffffffffffffffff16815260200160008152602001606081526020016000151581525090565b828054600181600116156101000203166002900490600052602060002090601f016020900481019282601f10611d4b57805160ff1916838001178555611d79565b82800160010185558215611d79579182015b82811115611d78578251825591602001919060010190611d5d565b5b509050611d869190611e77565b5090565b604051806101200160405280611d9e611e9c565b81526020016000815260200160008152602001600081526020016060815260200160008152602001611dce611ece565b81526020016000801916815260200160006002811115611dea57fe5b81525090565b828054600181600116156101000203166002900490600052602060002090601f016020900481019282601f10611e295780548555611e66565b82800160010185558215611e6657600052602060002091601f016020900482015b82811115611e65578254825591600101919060010190611e4a565b5b509050611e739190611e77565b5090565b611e9991905b80821115611e95576000816000905550600101611e7d565b5090565b90565b6040518060400160405280600073ffffffffffffffffffffffffffffffffffffffff1681526020016000151581525090565b6040518060800160405280600073ffffffffffffffffffffffffffffffffffffffff1681526020016000815260200160608152602001600015158152509056fe766f7573206e206574657320706173206f776e65722064652063657474652064656d616e6465696c6c757374726174657572206e6520666967757265207061732064616e73206c65732063616e6469646174732064652063657474652064656d616e6465766f7573206e276574657320706173206c652063616e64696461742063686f69736920706f75722063657474652064656d616e6465766f7573206e276176657a20706173206c612072c3a97075746174696f6e20717527696c2066617574a265627a7a723158207f940e7bab8401ca53134201d263324f5091a82d044c7f6cdc3ba672abe7e07164736f6c63430005100032",
  "source": "    pragma solidity >=0.5.16 <=0.6.3;\n\n    //pragma experimental ABIEncoderV2;\n\n    \n\n    contract MarketPlace {\n\n        \n\n        enum EtatDemande { OUVERTE, ENCOURS, FERMEE }\n\n        \n\n         struct Illustrateur {\n\n            address adresseIllustrateur;\n\n            uint reputation; //Pour reprsenter la rputation, nous allons associer chaque utilisateur  une valeur entire\n\n            string nom ;//Un nom est aussi associ  ladresse\n\n            bool estMembre; // si il est membre ou pas\n\n        }\n\n        \n\n        struct Demandeur {\n\n            address adresseDemandeur;\n\n            bool estInscrit;\n\n        }\n\n        \n\n        struct Demande {\n\n          Demandeur demandeur;\n\n          uint id; // id de la demande\n\n          uint remuneration ;       // (en wei)\n\n          uint delai ;              //seconds\n\n          string description;       //(champ texte)\n\n          uint reputationMinumum;   //Dfinir une rputation minimum pour pouvoir postuler\n\n          Illustrateur candidatChoisi;\n\n          bytes32 hashLienLivraison;\n\n          mapping (address => Illustrateur) candidats;\n\n          EtatDemande etatDemande  ;//Dfinir une rputation minimum pour pouvoir postuler\n\n        }\n\n        \n\n        mapping (address => Illustrateur) illustrateurs;\n\n        address[] public illustrateursAccts;\n\n        mapping (address => Demandeur) demandeurs;\n\n        address[] public demandeursAccts;\n\n        uint public indexDemande;\n\n        Demande[] demandes;\n\n        \n\n        event DeposerRemuneration(address indexed _from,address indexed _to,uint _value );\n\n        event PayerRemuneration(address indexed _to,address indexed _from,uint _value );\n\n        \n\n        modifier illustrateurInscrit(address addressIllustrateur){\n\n            require(illustrateurs[addressIllustrateur].estMembre, \"inscrivez vous\");\n\n            _;\n\n        }\n\n\n        modifier demandeurInscrit(address addressDemandeur){\n\n            require(demandeurs[addressDemandeur].estInscrit, \"inscrivez vous\");\n\n            _;\n\n        }\n\n        //Lorsquun nouveau participant rejoint la plateforme, il appelle la fonction inscription() qui lui donne une rputation de 1. Il\n\n        function inscription(string calldata nom) external {\n\n            // on verifie si il est membre ou pas \n\n            require(!(illustrateurs[msg.sender].estMembre), \"vous tes dja inscrit\");\n\n            illustrateurs[msg.sender].adresseIllustrateur = msg.sender;\n\n            illustrateurs[msg.sender].reputation = 1;\n\n            illustrateurs[msg.sender].nom = nom;\n\n            illustrateurs[msg.sender].estMembre = true;\n\n            illustrateursAccts.push(msg.sender);\n\n        }\n\n        function inscriptionDemandeur() external {\n\n            require(!(demandeurs[msg.sender].estInscrit),\"vous tes dja inscrit\");\n\n            demandeurs[msg.sender].adresseDemandeur = msg.sender;\n\n            demandeurs[msg.sender].estInscrit = true;\n\n            demandeursAccts.push(msg.sender);\n\n        }\n\n        \n\n        \n\n        function ajouterDemande(uint _remuneration, uint _delai, string calldata _description, uint _reputationMinumum) \n\n        external payable demandeurInscrit(msg.sender){\n\n            uint frais = _remuneration * 2/100;\n\n            require(msg.value >= _remuneration + frais);\n            \n            Demande memory demande;\n\n            demande.id = indexDemande;\n\n            demande.remuneration = _remuneration;\n\n            demande.delai = _delai;\n\n            demande.description = _description;\n\n            demande.reputationMinumum = _reputationMinumum;\n\n            demande.etatDemande = EtatDemande.OUVERTE;\n\n            demandes[indexDemande]= demande;\n            \n            indexDemande++;\n            \n            emit DeposerRemuneration(msg.sender,address(this), msg.value);\n\n        }\n       \n        function getDemandes(uint _indexDemande) public view returns (uint, uint, uint, string memory, uint, EtatDemande){\n            \n            return(demandes[_indexDemande].id,demandes[indexDemande].remuneration,demandes[indexDemande].delai,\n            demandes[indexDemande].description,demandes[indexDemande].reputationMinumum,demandes[indexDemande].etatDemande);    \n        }\n        \n       \n        ///----------------Mcanisme de contractualisation\n\n    //Crer une fonction postuler() qui permet  un indpendant de proposer ses services. \n\n    //Il est alors ajout  la liste des candidats.\n\n    function postuler(uint idDemande) external illustrateurInscrit(msg.sender) {\n\n        require(illustrateurs[msg.sender].reputation >= demandes[idDemande].reputationMinumum, \n\n        \"vous n'avez pas la rputation qu'il faut\");\n\n        Illustrateur memory candidat;\n\n        candidat = illustrateurs[msg.sender];\n\n        demandes[idDemande].candidats[msg.sender] = candidat;\n\n    }\n\n\n\n    //Crer une fonction accepterOffre() qui permet  lentreprise daccepter un illustrateur. \n\n    //La demande est alors ENCOURS jusqu sa remise\n\n    //enum EtatDemande { OUVERTE, ENCOURS, FERMEE } \n\n    //EtatDemande etatDemande  ;\n\n    function accepterOffre(uint idDemande, address addressCandidat ) \n\n        external demandeurInscrit(msg.sender) illustrateurInscrit(addressCandidat) {\n\n        require(demandes[idDemande].demandeur.adresseDemandeur == msg.sender,\n\n        \"vous n etes pas owner de cette demande\");\n\n        require(illustrateurs[addressCandidat].adresseIllustrateur == demandes[idDemande].candidats[addressCandidat].adresseIllustrateur,\n\n        \"illustrateur ne figure pas dans les candidats de cette demande\");\n\n        demandes[idDemande].candidatChoisi = illustrateurs[addressCandidat];\n\n        demandes[idDemande].etatDemande = EtatDemande.ENCOURS;\n\n    }\n\n\n\n    //Ecrire une fonction livraison() qui permet  lillustrateur de remettre le hash du lien o se trouve son travail. \n\n    //Les fonds sont alors automatiquement dbloqus et peuvent tre retirs par lillustrateur. \n\n    //Lillustrateur gagne aussi un point de rputation\n\n    function livraison(uint idDemande,string calldata lienLivraison) external payable illustrateurInscrit(msg.sender) {\n\n        require(illustrateurs[msg.sender].adresseIllustrateur == demandes[idDemande].candidatChoisi.adresseIllustrateur,\n\n        \"vous n'etes pas le candidat choisi pour cette demande\");\n\n        bytes32 hashLienLivraison = keccak256(bytes(lienLivraison));\n\n        demandes[idDemande].hashLienLivraison = hashLienLivraison;\n\n        demandes[idDemande].etatDemande = EtatDemande.FERMEE;\n\n        illustrateurs[msg.sender].reputation ++;\n\n        \n\n        msg.sender.transfer(demandes[idDemande].remuneration);\n\n        emit PayerRemuneration(illustrateurs[msg.sender].adresseIllustrateur, msg.sender, demandes[idDemande-1].remuneration);\n\n    }\n\n\n\n    }",
  "sourcePath": "/home/bobby/BlockainFormation/FormationDevBlockchainAlyra/smartContracts/DEFI2-FINAL/contracts/MarketPlace.sol",
  "compiler": {
    "name": "solc",
    "version": "0.5.16+commit.9c3226ce.Emscripten.clang"
  },
  "schemaVersion": "3.1.0",
  "updatedAt": "2020-05-22T02:25:05.043Z",
  "networkType": "ethereum",
  "devdoc": {
    "methods": {}
  },
  "userdoc": {
    "methods": {
      "postuler(uint256)": {
        "notice": "----------------Mcanisme de contractualisation"
      }
    }
  }
}